:0400000047EF00F0D6
:10000800FACF28F0FBCF29F0E1CF2AF0E2CF2BF08E
:10001800D9CF2CF0DACF2DF0F3CF2EF0F4CF2FF08C
:1000280017EE54F00E0129B733A703D010EC31F0C6
:1000380019D029B333A303D016EC31F013D029B566
:1000480033A503D013EC31F00DD0F2BC2EA105D0AE
:1000580038A103D09CEC2EF005D029B933A902D0E1
:10006800FAEC30F02FC0F4FF2EC0F3FF2DC0DAFFFA
:100078002CC0D9FF2BC0E2FF2AC0E1FF29C0FBFF3B
:1000880028C0FAFF110016EEFEF0E1EF21F00AECAD
:1000980031F0020103B1E8D2CFDB0001E76FE739A5
:1000A800E832070BE80601E09AD002011D5101E091
:1000B80096D0010171050001ED6F1AD0010171514F
:1000C8006F250001E06F000E010170210001E16F52
:1000D800ED51E05D8C6FE151D8A0E1055BEC26F0B5
:1000E80051EC2EF0100EED6502D0ED5F01D0ED6BF6
:1000F800ED51E4E184EC17F06FC168F170C169F16A
:100108007151FC0F6A6FB9EC2AF066C1F0F067C153
:10011800F1F068C1F2F069C1F3F071DB40EC2BF04B
:100128002BDBF051E81909E1F151E91906E1F25127
:10013800EA1903E1F351EB190FE08EEC26F002E126
:10014800DAEF2DF002510F0B030AD8A41200F15177
:10015800D8B41200DAEF2DF0020102510F0B030A96
:1001680003E1E35165EC30F06FC1F4F070C1F5F0D4
:10017800000120EE07F074DBDECF1EF2DECF1FF2A7
:10018800DECF20F2DECF21F220EE0CF069DBDF506B
:100198000F0B48EC2CF0000120EE0BF061DBDF3890
:1001A800070B606F20EE0BF05BDBDF500F0B86EC6C
:1001B8002FF0F4C09CF0F5C09DF00101715192EC54
:1001C80014F0F4C0A0F0F5C0A1F02DEC26F0E66A1A
:1001D800BBEC1DF002018DEC14F088EF14F0000167
:1001E800E739E832070B030A07E0E739E832070B7B
:1001F800050A02E061EF26F00201A76B6FC1F7F074
:1002080070C1F8F0020E121901E0D5D011DB6CDADA
:1002180002016251DE1809E16351DE1806E16451FA
:10022800DE1803E16551DE18D8A4C5D004A5C3D0F3
:10023800F7C060F0F8C061F03DEC28F0000904E177
:1002480002011ADB93EF26F036DADECFE0F07BDA34
:10025800010E706F8FEC21F0BCDA85DA94EC28F08F
:100268004DDA94EC28F0660EC86F020EC96FB50E11
:100278009BDAD2EC08F0F00E5CDA94EC28F0BFDAE6
:1002880040EC2BF079DAE851F019DAE1E951F1198B
:10029800D7E1EA51F219D4E1EB51F319D1E113DABC
:1002A8000E51DE5C0F51DE5822E305DACBDA0E512F
:1002B8000001E05F02010F51F4DA9E5D0001E15197
:1002C80002019F590EE2010179517A11B9E096ECC9
:1002D8000CF0050E636F01D8B3D705000101FA6E63
:1002E80062D0E9D9DECF0EF2DDCF0FF20DD0E3D91F
:1002F800DE50DE10E8E102010E29E5E10F29E3E115
:100308000E6B0F6B104B112B02010E2907E10F2901
:1003180005E1102903E1112901E1D5D702510F0B9D
:10032800080A08E1E45165EC30F00201E55165EC9A
:1003380030F007D002510F0B030A03E1E55165ECD9
:1003480030F09FDAD6D9C7D96ADA03E1E151E31967
:100358001EE072DAE56F01016F4B702B7151F40FDB
:100368000001F66F190EEC6F10DA0EC2A4F00FC27E
:10037800A5F010C2A6F011C2A7F0760EA86F020E63
:1003880020DA010EAD6FDDEC15F027DA01D08EDA38
:100398000201038303DA01E153D7C1D901D850D749
:1003A80005000101FA6E7951FD6E7A51FE6EF85022
:1003B800FF6EFA5012003CDA97D902011E51DE187E
:1003C80009E11F51DE1806E12051DE1803E1215131
:1003D800DE1808E061EC26F0020E0201121901E1B4
:1003E8002FD7120068D9DECFE0F0ADD9706B010EBF
:1003F8008FEC21F0EED9B7D994EC28F07FD994ECA2
:1004080028F073EC0BF0D0D9D2EC08F0F00E91D9AB
:1004180094EC28F0F4D940EC2BF0AED9E851F0195F
:1004280009E1E951F11906E1EA51F21903E1EB5149
:10043800F31903E061EC26F0CFD745D90A51DE5C09
:100448000B51DE5829E337D9FDD90A510001E05F85
:1004580002010B5126DA9C5D0001E15102019D5910
:1004680018E200919BD912E00201009B96EC0CF077
:10047800636F01D80BD005000101FA6E7951FD6E4A
:100488007A51FE6EF850FF6EFA5012000201039383
:100498001ED011D9FCD912D00ED9DE50DE100BE1D6
:1004A80002010A2908E10B2906E105D9F0D9020160
:1004B8000C4B0D2B03D061EC26F08ED702010A29D4
:1004C80009E10B2907E10C2905E10D2903E1048362
:1004D800020E84D702510F0B030A03E1E55165ECC4
:1004E80030F0010E0201D86FF7C060F0F8C061F07B
:1004F8004BEC2AF00001EFD80CE0080EF725A46FAA
:10050800000EF821A56FE7D8A66F5FEC12F0C4D9EA
:1005180001D0B7D90101EDD8DED881D903E1E15185
:10052800E31940E089D9E56F01016F4B702B000199
:10053800D2D8E06FE0510101715DF40F0001F66F50
:10054800CAD8190FEC6FE5510AE01FD95FD98CECB6
:100558000BF037D9AD6BDDEC15F03FD924D0010194
:10056800C8D8B9D8E26FE36B0D0EE227000EE3237B
:10057800E051E25DE351800AE46FE151800AE459F9
:1005880011E203D943D988EC0BF01BD9AD6BDDEC34
:1005980015F06FC1A4F070C1A5F0F605A66F5FEC69
:1005A80012F07AD983D9010E0201D86FD06BD16BC2
:1005B800EE6B0099038300A134D0000120EE05F012
:1005C80093D8DFAA2BD002010091E8D810E00201ED
:1005D800009BA5D801D80BD005000101FA6E79510E
:1005E800FD6E7A51FE6EF850FF6EFA50120002014D
:1005F800039302BB00BBF0D600B302D000A7ECD631
:1006080027D98CEC1FF0000906E1F2D87BEC1EF02C
:1006180002010097E1D66DEC1AF0DED6BFEC28F0A7
:10062800DBD6BCD810E00201009B79D801D80BD0EA
:1006380005000101FA6E7951FD6E7A51FE6EF8508F
:10064800FF6EFA501200020102BB00BBC5D600B310
:1006580002D000A7C1D6FCD88CEC1FF00009DBE162
:10066800C7D87BEC1EF0D4D7010179517A11D8B4E0
:10067800120007EC31F00001E06FE0B70ED0F5D8BA
:10068800030E636F05000101FA6E7951FD6E7A5110
:10069800FE6EF850FF6EFA501200E7D8020E636F34
:1006A80005000101FA6E7951FD6E7A51FE6EF8501F
:1006B800FF6EFA501200000120EE06F0F751D9261D
:1006C800F851DA22120020EE06F0F751D926F85137
:1006D800DA220201120020EE05F0F751D926F8516E
:1006E800DA22DF500F0B1200F751D926F851DA221F
:1006F800120071510001E06FE16B1200F00E606FA3
:10070800040E616F6FC162F070C163F0FC0E0101ED
:1007180071250001646F656BFF0E6523FF0CEEC049
:1007280060F0EFC061F0F6C062F0010E0001636F87
:10073800010C606F616BB50E626F010E636F656BC4
:10074800040E646F040CDDCFE1F0E0C06AF0E1C094
:100758006BF06C6B6D6B01017151FC0F00016E6FDA
:10076800490E6F6F490C616FB50E626F010E636FB2
:10077800656B100E646F100C6AC0E8F06BC0E9F08E
:100788006CC0EAF06DC0EBF012006FC1A0F070C150
:10079800A1F0F605A26F010EA36F010CF00E02176F
:1007A800010179517A111200CA6F010ECB6FE00E68
:1007B800CC6F040ECD6F010171510C0F0001CE6F8B
:1007C8001200A96FECC0AAF0E00EAB6F040EAC6F7C
:1007D8001200E00E606F040E1200FF0E01016F257B
:1007E8000001EE6FFF0E010170210001EF6F120092
:1007F800000E01016B6F6C6F6D6F6E6F000C6FC137
:100808006AF070C16BF071C16CF012000AC2A4F0FA
:100818000BC2A5F00CC2A6F00DC2A7F01200E26F41
:10082800E36B0C0EE227000EE323E051E2191200FD
:10083800000120EE01F012006FC1D9FF70C1DAFF8C
:10084800DF501200DECFE0F0DDCFE1F00201120050
:10085800010E0001A56FE60EA66F0201ED51120010
:10086800F451D926F551DA2212006FC160F070C137
:1008780061F071C162F012000251F00B0909026FB8
:100888001200080E01016F27000E7023000CDECF46
:100898000AF2DDCF0BF21200A4C06FF1A5C070F10F
:1008A80012000001E15BE05102011200F66BEE6BF1
:1008B800EF6B1200020103B1C6D10001C26BC36B1A
:1008C800C46BC56BC66BCF69D069D169D2690201A7
:1008D800F16B0251F00B0209026FDAC2D3F000A5E6
:1008E80032D0750E17252DDA985123DA9921DDD9E2
:1008F8001BEC25F0F4D9E25111EC2CF032DA21DAB4
:100908009A5117DA9B21D1D91BEC25F0E8D9E3518C
:1009180011EC2CF00201E251C4EC25F00201E35184
:10092800C4EC25F0DBC290F0DCC291F0926B936BC3
:10093800D60E946F0B0EC5EC08F025EC2AF0D9D929
:1009480025EC2AF046D0750E1725FBD99451F1D91C
:100958009521ABD91BEC25F0C2D9E45111EC2CF050
:1009680000DAEFD99651E5D997219FD91BEC25F0EC
:10097800B6D9E55111EC2CF00201E451C4EC25F094
:100988000201125103E1E551C4EC25F00001D351F5
:10099800E0D9DECFB2F0DDCFB3F0B251B46FB351CE
:1009A800B56FB66BB76BB429906F000EB521916F18
:1009B800000EB621926F000EB721936FDBC294F040
:1009C800DCC295F0966B976B25EC2AF092D925EC52
:1009D8002AF0D35162D990C0DEFF91C0DEFF92C0E9
:1009E800DEFF93C0DEFF0201E95121EC30F000097F
:1009F80065E00201E95165EC30F00201E95198EC3B
:100A08002CF087C0CBF088C0CCF089C0CDF08AC06C
:100A1800CEF0CE5107E11F0ECB5DAC0ECC59DF0EE8
:100A2800CD591EE3CBC0B2F0CCC0B3F0CDC0B4F00A
:100A3800CEC0B5F00D0E05D0D890B533B433B3336E
:100A4800B233E82EF9D7B2C090F0B3C091F0B4C079
:100A580092F0B5C093F07D0E67D925EC2AF012D03C
:100A6800CBC090F0CCC091F0CDC092F0CEC093F046
:100A78007D0E5AD925EC2AF00D0E02D071EC19F032
:100A8800E82EFCD790C0BAF091C0BBF092C0BCF081
:100A980093C0BDF0BA510201C85D0001C36FBB51DC
:100AA8000201C9590001C46FBC510201CA590001B1
:100AB800C56FBD510201CB590001C66FD36BD3512D
:100AC80086EC21F057E1D351E8D8BBEC0EF052E0A8
:100AD800D3510201DA1931E00001D351DED8DE50DA
:100AE800C35DDE50C459DE50C559DE50C65921E2F7
:100AF800D351D3D8DECFB2F0DECFB3F0DECFB4F02F
:100B0800DECFB5F0C351B25DB66FC451B359B76FFC
:100B1800C551B459B86FC651B559B96FD351BDD87D
:100B2800B6C0DEFFB7C0DEFFB8C0DEFFB9C0DEFF6B
:100B380004D0D351B2D8A2EC1DF00001D351ADD8E6
:100B4800DE50CF5DDE50D059DE50D159DE50D2593B
:100B580011E3D351A2D8BBEC0EF00CE0D3519DD8D1
:100B6800DECFCFF0DECFD0F0DECFD1F0DECFD2F0C7
:100B7800010EC26FD32B0F0ED365A1D7C20558E162
:100B8800CFC0C8F2D0C0C9F2D1C0CAF2D2C0CBF22D
:100B9800D25106E1CF29FF0ED0590F0ED15913E3D8
:100BA800CFC060F0D0C061F0D1C062F0D2C063F0B5
:100BB8007D0E77EC11F01BEC25F00C0E85EC11F096
:100BC800E82EFCD71DD0CFC0B2F0D0C0B3F0D1C052
:100BD800B4F0D2C0B5F00C0ED890B237B337B437F2
:100BE800B537E82EF9D7B2C060F0B3C061F0B4C031
:100BF80062F0B5C063F07D0E77EC11F01BEC25F0C8
:100C080060C0BEF061C0BFF062C0C0F063C0C1F098
:100C1800BEC06DF0BFC06EF0C0C06FF0C1C070F054
:100C28000201E95111EC2CF00201E951C4EC25F064
:100C3800020E02011219D8A412000251F00B080981
:100C4800026F93EF26F007EC31F00001B26FB2A902
:100C580011D0000E606F616F626F020E636F050046
:100C68000101FA6E7951FD6E7A51FE6EF850FF6EF1
:100C7800FA501200A6EC0CF0D8B4120096EC0CF066
:100C8800030E636F05000101FA6E7951FD6E7A510A
:100C9800FE6EF850FF6EFA5012000E0D080EF32487
:100CA800D96E040EF420DA6E12000001B46FB56B31
:100CB800B66B0C0ED890B337B437B537B637E82EC5
:100CC800F9D7B3C060F0B4C061F0B5C062F0B6C087
:100CD80063F07D0E646F656B666B676B7D0C60C03F
:100CE8006DF061C06EF062C06FF063C070F0020119
:100CF8001200FF0E9025C76FFF0E9121C86FFF0EDF
:100D08009221C96FFF0E9321CA6FC7C090F0C8C067
:100D180091F0C9C092F0CAC093F0B0C094F0B1C0CD
:100D280095F0966B976B1200946F956B966B976B1B
:100D380012000001B225B36F000EB2BFFF0E020110
:100D48001200F66EF76A7F0EF7220800F5CFB2F0B0
:100D580012000E0D060EF324D96E040EF420DA6E7E
:100D68001200750E02011C25120077EC19F0DBEC5D
:100D78001AF056EC12F0B4EC1BF001019A518CEC0D
:100D88001CF00101970501E06BD18DC162F0390EAD
:100D98002EEC2FF0A1C19EF0010E00019E1701015B
:100DA800D890A03500019F6F01019939CBD91D0E4C
:100DB8002EEC2FF09DC09EF0030E00019E179BC1E4
:100DC8009FF0010E9F17D8909F37D8909F37010149
:100DD8009839B8D91E0E2EEC2FF001019D519E11A5
:100DE80041E09DC1A1F09EC1A2F00001A36BA46BDC
:100DF80023D09FD97D0E000198EC06F025EC2AF04F
:100E080010D097D9FA0E000198EC06F025EC2AF0DC
:100E180008D08FD9F40E0001946F010EB2D925ECD9
:100E28002AF090C0A1F091C0A2F092C0A3F093C0A4
:100E3800A4F00BD08DD909D001019951070AD9E046
:100E48000F0ADFE0010AE5E0F5D701019829000162
:100E58009E6F05D0D890A433A333A233A1339E2F1D
:100E6800F9D701D075D9A1C062F0240E2EEC2FF06D
:100E78009CC062F01F0E2EEC2FF0260E64EC2EF0B4
:100E8800A56F0C0E0101981906E1070E991909E0E2
:100E9800080E991906E00B0E981906E1070E991924
:100EA80003E10001A58702D00001A597A585A5C08B
:100EB80062F0260E2EEC2FF0310E64EC2EF0A56FAA
:100EC800F80EA517030EA51360D92EEC2FF00A0E05
:100ED8000001626F370E2EEC2FF0120E0101B019CF
:100EE80025E1070E991903E0080E991913E1310E4F
:100EF80064EC2EF0A56FA59F48D92EEC2FF0400E7C
:100F08000001626F2F0E2EEC2FF00001626B300E85
:100F18002EEC2FF0090E0101991908E1310E64EC4D
:100F28002EF0A56FA58F31D92EEC2FF0330E64EC7F
:100F38002EF0A56FA59DA5819FC19EF0010E9E175D
:100F4800060E9F6FD8909E379F2FFCD79E51A513F2
:100F5800A5C062F0330E2EEC2FF09FC19EF0010E5B
:100F680000019E17D8909E37D8909E35FF0A1D0B1A
:100F7800A56FA5C062F03B0E2EEC2FF0EFD8200E27
:100F88002EEC2FF08BC162F0210E2EEC2FF003D93E
:100F98002EEC2FF00001626B0E0E2EEC2FF00001EC
:100FA800626B0F0E2EEC2FF0120E0101B01954E1F6
:100FB800090E991919E1800E7F5D130E8059610E93
:100FC8008159330E825910E37F05F70E8059CB0EF5
:100FD80081593C0E825908E2CDD82EEC2FF0640ED0
:100FE800C6D82EEC2FF023D0090E99191AE1800EDD
:100FF8007F5D1A0E8059700E8159180E825911E3BF
:10100800410E7F5DDD0E80594A0E81591F0E8259AF
:1010180008E2B0D82EEC2FF07F0EA9D82EEC2FF0D6
:1010280006D0030E0001626F360E2EEC2FF0090E6B
:10103800010199190AE19F0508E195D82EEC2FF0D6
:10104800190E9CD82EEC2FF007D08DD82EEC2FF04F
:101058001D0E94D82EEC2FF0A1EC24F02EEF2FF0DB
:1010680083C16DF084C16EF085C16FF086C170F0E8
:1010780057EC27F087C16DF088C16EF089C16FF019
:101088008AC170F0F5EC26F069D8250E2EEC2FF009
:101098008BC162F0260E2EEC2FF00A0E64EC2EF0B7
:1010A800A56F9F0EA5170101B239E846E00B0001B4
:1010B800A513A5C062F00A0E2EEC2FF0C80E000191
:1010C800A56F01019B5102E00001A589A5C062F04E
:1010D800300E2EEC2FF00001A06B0ED08E0EA02546
:1010E800D96EDA6A010EDA22DF50626FA051280F3A
:1010F8002EEC2FF00001A02B010196510001A05DFC
:10110800EDE30101965108E0960510090001626FB0
:10111800270E2EEC2FF005D00001626B270E2EEC67
:101128002FF0000162693E0E2EEC2FF031D82EEF21
:101138002FF0A1C090F0A2C091F0A3C092F0A4C07B
:1011480093F01200F00B00019F119E11626F1200C4
:101158000001A16BA26BA36BA46B120001018C515F
:101168000001626F1200650E0001626F3A0C000107
:10117800626F3A0C020E0001626F360C0001626F5A
:101188003B0C956F966B976B1200A5C062F0310C03
:10119800000162693F0C0001626B0D0C0101656B77
:1011A800646B626B606B616BC8C0A0F0C9C0A1F0D2
:1011B800100E0001A26F010EA36F000EA46F010EA6
:1011C800A56FFCEC19F0CE51CF6FD06B0F0ECF2767
:1011D800000ED023040ED16FD035D033CF33D12FAA
:1011E800FBD7CF510101636F635104E1010E636FB7
:1011F800626B0AD0CEC0CFF00F0E0001CF17010EE0
:10120800D8A4000E0101626F62052EE1646B635180
:10121800100DF350F00F656F18D0200E01016425F2
:101228001AD9100E6425E96EEA6A010EFAD801018E
:1012380065510001CC25E96E000ECD21EA6EEF5014
:10124800CF19DF6E0101642B652B6351C1D80101F1
:101258006551FDD8CF51D15DD251800AD36FD0519D
:10126800800AD35940E2D9D70001CE51CC25CF6F9F
:10127800000ECD21D06FCE510F0BCF5D0101606FF5
:101288000001D051D8A0D0050101616F656BE8D885
:1012980065610CD065516025D96E000E6121DA6E4A
:1012A800300ECAD8EA22DFCFEFFF09D0D9D86519A6
:1012B80004E1B0D8800EDF6E02D0ACD8DF6A652BAF
:1012C8000F0E6565E4D7656B200E6525C4D8000E42
:1012D8006525E96EEA6A010EA4D8300E0101ACD882
:1012E80089D86565F1D7500E0001606F010E616FF6
:1012F800C4EC21F0EFEC2DF00101656B34D0010155
:10130800646B400E6425B1D8655162D8CCC0D1F069
:10131800CDC0D2F096D864510001D125E96E000EF7
:10132800D221EA6EEF50D36F500E010164256ED8BA
:10133800EA22EF500001D319DF6E0101642B0F0E72
:101348006465DFD7500E0001606F010E616F5AD8D7
:101358004CD894EC28F0500E8C6F010E67D851ECE5
:101368002EF00101652B0001CF69D069010163519D
:101378006ED867D865510001D36FD46BD151D35D56
:10138800D451800AD56FD251800AD559B8E30101EA
:10139800656B400E652569D8200E6525E96EEA6AF9
:1013A800010E3FD8500E0101652530D823D8656558
:1013B800F0D7400E00018C6F010E38D851EC2EF09A
:1013C800CAC060F0CBC061F01DD80FD894EF28F0E8
:1013D8000001CF6FD06BCF3BD03BF00ED017CF5171
:1013E8000F0BD013F00ECF17F00C636F656B100E58
:1013F800646F100CEA22EF500001CF19DF6E010173
:10140800652B0F0C400E626F010E1200E96EEA6A3E
:10141800010E1200300E6525D96EDA6A010EDA2245
:101428001200EA22EF500001CF6F12008D6FC8C082
:101438008EF0C9C08FF012006525E96EEA6A010EC8
:101448001200CF51D127D051D2230101120000013F
:10145800D16FD26B1200D96EDA6A010EDA2212004D
:101468000001CE510F0B01011200D96EDA6A010E8C
:10147800DA221200D86F100E0001DC6FDB6BD90E78
:10148800606F616B636B626B656B010E646FEFEC91
:101498002DF068EC17F0EFEC2DF0D1EC21F0C4EC56
:1014A80021F0EFEC2DF0D80507E1D9511F0B800989
:1014B800D96F0201008104D0D9511F0B4009D96F9F
:1014C800FC0E0001D917E30ED917EF0E17D9D9C0B2
:1014D800DFFFDC2BEF0EF3D8D6EC21F0BFEC21F0C8
:1014E80094EC28F0040EDC27DA6B020102AD30D050
:1014F8000001DA8F0201DF51EB5D29E20001DA8D8C
:1015080002010089D04BD12BA251D019D11102E18F
:10151800EE6B1AD0A2510001D66FD76B0201D051E1
:101528000001D65D0201D1510001D7590EE2020136
:10153800EE2BEE51A35D0CE2EE6B66EC23F0000996
:1015480007E10201D06BD16B0001DA9D020100991D
:10155800020100A304D00001DA8B0201009300010C
:10156800DA990201A75104E0010169516A1104E105
:10157800F00E0001DA1707D02CEC24F0D66FDA1938
:10158800F00BD619DA6FEF0EB9D8DAC0DFFFDC2B13
:10159800EF0E95D8060E626F020E636F656B020E32
:1015A800646F94EC28F0020EDC270201A7510FE0CB
:1015B800010169516A110BE0EF0E0001606F050E21
:1015C800616FDC0E626F010E636FC2EC0FF0EF0EFD
:1015D800000194D866C1DFFFDC2B010169516A1153
:1015E8001CE0EF0E00016BD867C162F068C163F0C0
:1015F80069C164F06AC165F094EC28F067C1A0F095
:1016080068C1A1F069C1A2F060D882D86ED8DDECBB
:1016180015F001016951000119D00201A75117E025
:10162800E00E0001606F040E616FDB0E626F636B8A
:10163800C2EC0FF0E00EA06F040EA16FDBC0A2F0A9
:1016480044D862D852D8DDEC15F0DB51DC2706C24D
:101658006AF007C26BF008C26CF009C26DF00001B5
:10166800DC51F00F6E6F490E6F6F000E706B8FECD0
:1016780021F0EF0E606F050EB7EC03F094EC28F044
:101688002ED8CA6F010ECB6FEF0ECC6F050ECD6F43
:10169800DCC0CEF0D2EC08F0EF0E11D8B50E626FB8
:1016A800010EBFEC21F094EC28F0040EDC27F00EBC
:1016B800DC250201D46FD56BFF0ED523FF0CDC258A
:1016C800606F616B050E61231200A36B06C2A4F064
:1016D80007C2A5F008C2A6F009C2A7F01200220EA0
:1016E800C86F020EC96FB50E1200A96FDCC0AAF050
:1016F800EF0EAB6F050EAC6FAD6B1200DC25D96E2B
:10170800DA6A050EDA221200220EA86F020E120003
:10171800320EA86F020E12000001BB69BC69BD69D8
:10172800BE69020103B1EDD002510F0B030A0EE1AD
:10173800125105E10251F00B0409026F1200020E6A
:101748001219D8A41200E66A32EF22F000B5DAEFD7
:101758002DF002A9120000A13CD0D951D75D25E394
:10176800E7D8A0510001B76F0201A1510001B86F7D
:10177800B96BBA6B0C0ED890E0D8E82EFCD7B7C07E
:1017880060F0B8C061F0B9C062F0BAC063F07D0E15
:1017980077EC11F01BEC25F073EC06F0E85111EC36
:1017A8002CF00201E851C4EF25F06EEC30F0010195
:1017B80079517A11D8B41200B5D8636F05000101C8
:1017C800FA6E7951FD6E7A51FE6EF850FF6EFA503E
:1017D8001200D851D65D01E281D0AAD8010EC4EC1E
:1017E80026F0000913E1FF0E7DEC25F0CEEC0EF09B
:1017F800A651A71104E10201D82B83EF25F0C0EC14
:1018080030F0010179517A11D7E11200BF6B3AD05B
:101818000001BF5186EC21F033E1BF5151EC06F0D5
:10182800BBEC0EF02DE0BF5151EC06F0DE50BB5D75
:10183800DE50BC59DE50BD59DE50BE5921E3BF51C0
:101848007EEC21F0DF500F0BB76FB7510201DF5D5F
:1018580017E30001BF517EEC21F0DF380F0BB76FA3
:101868000201DF510001B75D0BE3BF5151EC06F0F7
:10187800DECFBBF0DECFBCF0DECFBDF0DECFBEF0FA
:101888000001BF2BBF510201ED5DC2E2BBC0B7F042
:10189800BCC0B8F0BDC0B9F0BEC0BAF00C0ED8904C
:1018A80000014BD8E82EFBD7000EB725606F200E3D
:1018B800B821616F030EB921626F000EBA21636F00
:1018C8007D0E77EC11F01BEC25F073EC06F0EA5175
:1018D80011EC2CF00201EA51C4EF25F0C0EC30F015
:1018E80031D8D8B412001ED8010E636F050001016B
:1018F800FA6E7951FD6E7A51FE6EF850FF6EFA500D
:10190800120020D8D8B412000DD8020E636F05005B
:101918000101FA6E7951FD6E7A51FE6EF850FF6E34
:10192800FA501200000E0001606F616F626F000CC8
:101938000251F00B0609026F1200B737B837B937F2
:10194800BA371200010179517A1112008B6B685174
:101958008B25D96EDA6A8B51710FE96EEA6ADFCF8F
:10196800EFFF8B2B0F0E8B65F2D70A0E476E010E19
:10197800466E8B6BC1D8B2D8FDD88B65FBD78B6B05
:10198800ADD8DF50696F6A6B6D0E6925F66E7E0EF5
:101998006A21F76EA3D80800F5CFDFFF8B2B0F0E57
:1019A8008B65EED766C060F067C061F0F2EC1CF0A2
:1019B800470401E184D08B6B98D86929D96EBDD8CA
:1019C8006B6F8CD8DF506B19896F8FD8CFD8B5D88B
:1019D800A4D88A6F8919876F88D86929D96EADD834
:1019E8009CD8886F7F0E896508D01B0E89C069F066
:1019F800AFD8816F6A51826F05D0D8908935816FD1
:101A0800826B823781C089F07F0E886508D01B0EF3
:101A180088C069F09DD8836F6A51846F05D0D890CB
:101A28008835836F846B843783C088F07F0E8A651E
:101A380008D01B0E8AC069F08BD8856F6A51866FF3
:101A480005D0D8908A35856F866B863785C08AF031
:101A580045D884D887198919DF6E47D86929D96E7E
:101A680052D86B296FD887198819DF6E3ED8020EB5
:101A78006925D96E48D8020E6B2564D887198A194A
:101A8800DF6E33D873D83FD8020E6B255BD86D6FE5
:101A98008B5166256E6F000E67216F6F6E29E96E98
:101AA800000E6F21EA6EEF50706F58D870196D19DB
:101AB8008719DF6E040E8B270F0E8B657DD7710E8D
:101AC800606F6EEC16F08B6B17D808D853D88B65FF
:101AD800FBD74706475001E052D712008B516625C5
:101AE800D96E000E6721DA6E12008B516625696F78
:101AF800000E67216A6F12008B51710FD96EDA6A76
:101B0800DF50696F1200000E6A21DA6E8B5166256C
:101B18006B6F000E67216C6F12006B6F8B5166251F
:101B28006C6F000E67216D6F020E6C25D96E000E6A
:101B38006D21DA6EDF506B191200000E6A21DA6E21
:101B4800DF501200E96E000E6C21EA6EEF501200B1
:101B58006A6BD89069376A37691912008B51662504
:101B6800E96E000E6721EA6EEF501200030E692538
:101B7800D96E12006951DF1A8B2B0F0C0A0EE12661
:101B8800000EE2225068516852685368E1D8FE0E90
:101B9800E36AFE0EE35086EC21F055E1FE0EE350B9
:101BA80051EC06F0E4D84FE0FE0EE35051EC06F09D
:101BB800DE500201C85DDE50C959DE50CA59DE50F8
:101BC800CB591EE2FE0EE35051EC06F0D5D8C851B1
:101BD800505C4C6EC95151584D6ECA5152584E6E98
:101BE800CB5153584F6EFE0EE35051EC06F04CC0EB
:101BF800DEFF4DC0DEFF4EC0DEFF4FC0DEFF06D069
:101C0800FE0EE35051EC06F0A2EC1DF0FE0EE35080
:101C180051EC06F0FA0EE3CF49F0DE50495CFB0EBA
:101C2800B4D8FC0EB2D8FD0EB0D80DE3FE0EE350CA
:101C380051EC06F09CD807E0FE0EE35051EC06F09C
:101C48009BD886D8E32AFE0EE32AE3CF49F00F0E8D
:101C580049649FD7FF0EE3046CE1E150FA0F6CD89A
:101C6800DECFC8F2DECFC9F2DECFCAF2DECFCBF2CA
:101C7800FD0EE3500DE1FA0EE328FB0EE3CF49F029
:101C8800FF0E495AFC0EE3CF49F00F0E495A18E3EC
:101C9800E150FA0F51D8DECF60F0DECF61F0DECF31
:101CA80062F0DECF63F07D0E000177EC11F01BECE3
:101CB80025F004EC1EF00C0E45D8E82EFDD720D0F8
:101CC800FA0EE3CF50F0FB0EE3CF51F0FC0EE3CF5A
:101CD80052F0FD0EE3CF53F00C0E34D8E82EFDD7AA
:101CE80050C060F051C061F052C062F053C063F060
:101CF8007D0E000177EC11F01BEC25F004EC1EF0D2
:101D0800F60E50C0E3FFF70E51C0E3FFF80E52C0C5
:101D1800E3FFF90E53C0E3FFE150F60FD96EE2502E
:101D28000DEC1EF0E95111EC2CF00201E951C4EC64
:101D380025F0F50E1AEF1EF0D96EE250DA6EFF0E9E
:101D4800DA22FF0CD89050365136523653361200EC
:101D5800FA0E50C0E3FFFB0E51C0E3FFFC0E52C069
:101D6800E3FFFD0E53C0E3FFFF0EE36A1200DE50EF
:101D7800DE10DE10DE101200DECF50F0DECF51F0A4
:101D8800DECF52F0DECF53F01200E3CF49F0DE5041
:101D9800495812000101A2A506D0800E0001A76FC4
:101DA800030EA66F030CA2C1A9F0030E0001A91728
:101DB80005E0800EA76F040EA66F040C0101975171
:101DC80009E1400E0001A86505D0800EA76F020E3C
:101DD800A66F020C0101A65165EC30F0CAD8B9EC27
:101DE80006F0010197051DE1A8C062F0220E2EEC55
:101DF8002FF00A0E64EC2EF0B56FF00EB517B5870C
:101E0800B5C062F00A0E2EEC2FF0400E0001626F92
:101E18002EEC2FF0ABD82EEC2FF0A2D8DBEC1AF07A
:101E280007D090EC11F02EEC2FF0A0D82EEC2FF06C
:101E38000101975105E1A8C062F0000E2EEC2FF0C9
:101E480021EC31F0800ED9EC30F00001B66B0BD0EC
:101E5800B651A625D96E000EA721DA6EDF50D9EC4F
:101E680030F00001B62BA851B65DF2E31FEC31F05B
:101E78000101A281E70EA21766EC2DF0030EDBEC40
:101E88001AF000016D6B6E6B0A0E6F6F706B0101BB
:101E9800A65111EC2CF00101A651C4EC25F05AD83A
:101EA80045E0AC5102E150D80BE344D877EC11F08F
:101EB8001BEC25F00C0E85EC11F0E82EFCD71ED09B
:101EC800A9C1A9F0AAC1AAF0ABC1ABF0ACC1ACF0F2
:101ED8000C0ED8900001A937AA37AB37AC37E82EDB
:101EE800F8D7A9C060F0AAC061F0ABC062F0ACC07E
:101EF80063F07D0E77EC11F01BEC25F060C0B1F0BB
:101F080061C0B2F062C0B3F063C0B4F0B1C06DF0AC
:101F1800B2C06EF0B3C06FF0B4C070F00101A85148
:101F280011EC2CF00101A851C4EC25F00001A66BBE
:101F3800A76B1200A9C160F0AAC161F0ABC162F041
:101F4800ACC163F000017D0CA929FF0EAA590F0E40
:101F5800AB5912000101A951AA11AB11AC11120021
:101F680097C165F0010E0001666F010C0001626BFC
:101F7800410C000E9D6F040E9C6F040CE8D86B6F2B
:101F88006A6BCAD0635101E1B4D06A51D8D8DE284F
:101F980001E1AFD0FE0E646F65696A51D0D8DF5099
:101FA800666F676B64516627655167239B0E6625CC
:101FB800F66E7F0E6721F76E0800F5506BC068F06B
:101FC800696B6827000E6923C2D8685F000E695BD9
:101FD80069BF8FD0695105E1100E685D01E3A2D099
:101FE80088D0A0D0A5D8030EDF6E6B2BA1D8DF6AEE
:101FF8006A51CBEC15F0DFA004D0000199D8000E8F
:10200800DB8000016A51CBEC15F0DFA203D090D839
:10201800000EDB8200016A51CBEC15F0DFA404D07E
:10202800000186D8000EDB8400016B2B74D080D8A9
:10203800050EDF6E6B2B7CD8DF6A6A51CBEC15F08E
:10204800DFA604D0000174D8000EDB8000016A51BD
:10205800CBEC15F0DFA803D06BD8000EDB820001B3
:102068006A51CBEC15F0DFAADFD7DAD761D8060EB4
:10207800DF6E6B2B5DD8E0C2DFFF6B2B04EC31F019
:10208800800AA00F05E304EC31F0800A600F04E336
:1020980000014ED8200E05D000014AD804EC31F0DA
:1020A8003F0BDF6EC1D744D8070EDF6E6B2B40D8CD
:1020B800DF6A6A51CBEC15F0DFAE04D0000138D8E6
:1020C800000EDB8000016A51CBEC15F0DFACACD719
:1020D8002FD8000EDB82A8D70201DD69DE6B000174
:1020E8006A512DD86B516025E96E000E612134D8F4
:1020F8009BD76A5124D8DF50020AEEE0010A01E1B9
:1021080071D7070AECE0010A92E0030AAFE0010A7E
:10211800CAE00F0AE4E06A2B0201A75100016A5DD8
:1021280001E230D76251D96EDA6A6BC0DFFF120064
:102138006B516025D96E000E6121DA6E1200020D16
:10214800A80EF324D96E020EF420DA6E1200625142
:10215800D96EDA6ADF501200EA6EDFCFEFFF1200A5
:102168000101A2A506D0800E0001A76F030EA66F7D
:10217800030CA2C1A8F0030E0001A81705E0800E09
:10218800A76F040EA66F040CA651A71105E1BDECBC
:102198000FF0B9EC06F006D0A6C09CF0A7C09DF0E1
:1021A800B9EC06F0010197050EE1010E0001626F1E
:1021B800220E2EEC2FF0B0D82EEC2FF0BAEC0FF048
:1021C8002EEC2FF011D0B3C162F0120E2EEC2FF0CE
:1021D800B4C162F0130E2EEC2FF09ED82EEC2FF027
:1021E800BAEC0FF02EEC2FF00101A283E70EA21734
:1021F8000001A651A71106E177EC19F0050EDBECFA
:102208001AF031D00101970509E1010E0001656F4F
:10221800000E666F060EDBEC1AF025D0000E99EC66
:1022280024F0DBEC1AF00001A651A86FA751A96FA2
:10223800AA6BAB6B0C0ED8906AD8E82EFCD758D88E
:1022480052D81BEC25F060C06DF061C06EF062C022
:102258006FF063C070F00101A75111EC2CF001017F
:10226800A751C4EC25F0AEEC0FF039E0AC5103E116
:10227800A8EC0FF00AE39EEC0FF035D81BEC25F024
:102288000C0E3FD8E82EFDD712D0A9C1A8F0AAC1DC
:10229800A9F0ABC1AAF0ACC1ABF00C0ED89000010C
:1022A80036D8E82EFBD724D81ED81BEC25F060C002
:1022B800ACF061C0ADF062C0AEF063C0AFF0ACC0CE
:1022C8006DF0ADC06EF0AEC06FF0AFC070F0010140
:1022D800A85111EC2CF00101A851C4EC25F0000123
:1022E800A66BA76B1200646F656B666B676B120059
:1022F800A8C060F0A9C061F0AAC062F0ABC063F0EA
:102308007D0CD89060376137623763371200A83781
:10231800A937AA37AB3712000001626B400C7BC0AB
:102328007FF17CC080F17DC081F17EC082F1A80E72
:102338000101836F610E846F856B866B500E876F0A
:10234800C30E886F896B8A6B010E976F070E996FA2
:10235800010E9A6FA06FA16B8C6B080E8B6F0C0E21
:10236800986F010E9B6F9C6B9F6BC10E8E6F940EC6
:102378008F6FC10E906F030E966F340E8D6FA26B28
:10238800A36B79C0A4F17AC0A5F19D6B9E6B800EFA
:10239800B16F980EA96F3A0EAA6FAB6BAC6B020EB9
:1023A800B26F0B0EB36F120EB46FAE6BAF6BAD5155
:1023B80023E17EEC2BF00101A66F7EEC2BF00101EE
:1023C800A76F7EEC2BF00101A86F640E0001606F0F
:1023D800590E616F626B0101A751AEEC2DF05A0ED8
:1023E800606F580E616F626B0101A851AEEC2DF061
:1023F800010E0101AD6F0BD0A65165EC30F0010163
:10240800A75165EC30F00101A85165EC30F03FECC4
:102418002DF0000E0001656F010E666FDBEC1AF0FF
:1024280041D8B4EC1BF0420EC2EC08F02EEC2FF0B1
:102438003B0E64EC2EF07F6F7FBBFAD7230E626FE2
:102448000C0E2EEC2FF01E0E0001626F0D0E2EECFE
:102458002FF0AA0E0001626F1F0E2EEC2FF08F0EC8
:102468000001626F350E2EEC2FF000016269320E0A
:102478002EEC2FF0400E0001626F310E2EEC2FF083
:10248800010E0001656F666F000EDBEC1AF00001AB
:102498006269230E2EEC2FF0420E64EC2EF001013F
:1024A800B06F12007FC16DF080C16EF081C16FF016
:1024B80082C170F01200A96BA4C0AAF0A5C0ABF04D
:1024C800A5D00201A751CBEC15F0DF90A751CBECBA
:1024D80015F0DF92A751CBEC15F0DF94A751CBECA8
:1024E80015F0DF96A751CBEC15F0DF98A751CBEC90
:1024F80015F0DF9AA751CBEC15F0DF9CA751CBEC78
:1025080015F0DF9E97D8A751020DA80EF324E96EA7
:10251800020EF420B0EC10F05BD0AAC060F0ABC0A3
:1025280061F082EC2DF060C0AAF061C0ABF002014E
:10253800A751A3EC10F0DF685FD0AAC06DF0ABC064
:102548006EF03DEC15F06DC0AAF06EC0ABF054D043
:10255800AAC060F0ABC061F08AEC29F060C0AAF0B4
:1025680061C0ABF049D0AAC09CF0ABC09DF011ECA3
:1025780018F09CC0AAF09DC0ABF03ED0AAC060F095
:10258800ABC061F0BBEC30F060C0AAF061C0ABF04A
:1025980033D0AAC09CF0ABC09DF023EC13F09CC0D4
:1025A800AAF09DC0ABF028D0AAC067F0ABC068F015
:1025B8008AEC2EF067C0AAF068C0ABF01DD0010EFF
:1025C800A96FA651A425AA6F000EA521AB6FAFD79E
:1025D80031D80001AA4BAB2BDF50020A9EE0010A5A
:1025E800ACE0070AB5E0010ABEE0030AC7E0010A49
:1025F800D0E00F0AD9E0E3D70201A751A3EC10F00D
:10260800DE2804E0100EA76101D0A72B0001A65117
:10261800A425A76F000EA521A86FA751AA5DA851F0
:10262800AB5903E2A95101E14CD7AAC0A4F0ABC051
:10263800A5F01200AAC0D9FFABC0DAFF1200AFD8CC
:10264800DF50A36F9C4B9D2BAAD8FF0EDE149F6F03
:10265800FF0EDE14A06FFF0EDE14A16F000EDE1455
:10266800A26F9FC090F0A0C091F0A1C092F0A2C04C
:1026780093F0640E98EC06F025EC2AF090C09FF0D9
:1026880091C0A0F092C0A1F093C0A2F0030E9C27C5
:10269800000E9D2384D8DF509E6F9C4B9D2B606B52
:1026A800A3511FEC2FF000091EE19FC060F0A0C0ED
:1026B80061F0A1C062F0A2C063F0B5EC27F0000998
:1026C80002E072D805E10201A751CBEC15F0DF8ECC
:1026D80000019E517EEC2CF0000905E10201A75192
:1026E800CBEC15F0DF8C0201A751CBEC15F0DFAE77
:1026F80040D0A751CBEC15F0DFAC3BD0100EDA611F
:1027080019D0000151D811E039D82BEC2EF09EC019
:1027180060F0A3513BEC21F03BD86CEC2DF0010E9E
:10272800606FA35157EC1DF022D0646BA35111ECDC
:102738002DF01DD0000138D815E020D8100F2BEC53
:102748002EF09EC060F0A351100F3BEC21F020D872
:10275800100F6CEC2DF0010E606FA351100F57ECA9
:102768001DF005D0646BA351100F11EC2DF0020180
:1027780003879CC09CF09DC09DF012009FC060F034
:10278800A0C061F0A1C062F0A2C063F0A351120022
:10279800010E0001616F2E0E606FA35112009CC0E4
:1027A800D9FF9DC0DAFF12009F51A011A111A211FB
:1027B80012000001A76F0201F00502E1D8EC29F030
:1027C800340E0201F46FF451D4EC30F0020197D8C2
:1027D800DD69DE6B8FD8D46BD56B96D89AD8D26B5F
:1027E800D36BDC6B010EDB6FD06BD16BEE6BEF6BD9
:1027F80081D8039584D8006B016B070ED76FD66B11
:10280800010ED96FD86FE069A7C0A4F2126B100E41
:10281800ED6F0001A75110E1F00E5AD893EC11F0BA
:10282800D8EC2BF002011C6B080E186FE60E196F1E
:10283800D30E1A6F330E19D0F00E796F040E7A6F1B
:10284800200E7B6FA20E7C6FD30E7D6F190E7E6FEC
:1028580093EC11F086EC27F002011C6B280E186F20
:10286800760E196FE80E1A6F190E1B6F010EE16FC5
:10287800DF6B8FEC25F00201A56BA66B1D0E000126
:10288800606F020E616F636B626B656B690E646FDC
:10289800EFEC2DF029D8070E976FD00E966F130E18
:1028A800996F880E986F170E9B6F700E9A6F070EB0
:1028B800A16FD00EA06F200EA36F400EA26F9D6F68
:1028C8009C6B9F6F9E6B00019D6B9C6B94EF18F047
:1028D800796F040E7A6FA00E7B6F270E7C6FBE0E89
:1028E8007D6F330E7E6F330C030E0201956FE80E79
:1028F800946FE80CC86BC96BCA6BCB6B1200026B88
:10290800036B046B056B12000A6B0B6B0C6B0D6B86
:102918001200066B076B086B096B12000001A06FB1
:10292800210EA019D8A41200030EA56FA66BA16BE7
:10293800A26BA36BA46BA10E606F616BA651030D14
:102948009CC09EF09DC09FF0F3509E27F4509F239B
:102958000D0E9E25626F000E9F21636F0DEC28F00F
:1029680094EC28F0A1C090F0A2C091F0A3C092F01E
:10297800A4C093F0640E98EC06F025EC2AF090C001
:10298800A1F091C0A2F092C0A3F093C0A4F0A1510D
:10299800A211A311A41144E0A1C060F0A2C061F08B
:1029A800A3C062F0A4C063F0B5EC27F000093DE1D4
:1029B80059D8F35042D8A1C0DEFFA2C0DEFFA3C0A1
:1029C800DEFFA4C0DEFFA6510E0D000E42D835D89A
:1029D800DF500F0B5009DF6E0001A6510E0D000EDF
:1029E80038D82BD8F00EDF163DD8060E9E27000EDD
:1029F8009F23F35022D8E70EDE6E030EDD6E32D829
:102A08000D0E9E27000E9F23F35017D8DF68010E86
:102A1800646FA651A52511EC2DF00201038705D09E
:102A2800646BA651A52511EC2DF00001A62B040E10
:102A3800A6657DD702010387040C9E27F4509F23C7
:102A4800A5510E0DF3509E25D96EF4509F21DA6ED4
:102A580012009E6F040E9F6F050E9E27000E9F2387
:102A6800F3501200A6510E0D000E9E6F040E9F6FBC
:102A780012009AD8DF500F0B726F96D8DF506F6F25
:102A88006F390F0B756F6D4B6E2B8ED8DECF70F0D4
:102A9800DDCF71F0020E6D27000E6E236DC073F04E
:102AA8006EC074F06D4B6E2B020102AD62D077D808
:102AB8000001DF38070BD0EC2FF000090CE170C0E3
:102AC80060F071C061F028EC2DF0000904E102010A
:102AD800A7515DD8DF800001755136EC30F0000950
:102AE8000CE10201EB510001755D07E3755102012C
:102AF800EC5D03E3A7514BD8DF8200017251AEECC5
:102B08002EF0000904E10201A75141D8DF84020137
:102B1800A7513DD8DFA436D0A75139D8DFA232D08B
:102B2800A75135D8DFA02ED070C06AF071C06BF005
:102B380036D80001DF38070B6C6F16EC30F0725195
:102B4800E2EC30F00201038900017551E6EC30F047
:102B580026D80001DF500F0B03E10201D66B07D026
:102B68001ED8DF500F0B6F6F6F050201D66F038BF6
:102B780009D0A7510CD8DF90A75109D8DF92A751E7
:102B880006D8DF946DC06DF06EC06EF01200020DB5
:102B9800A90EF324D96E020EF420DA6E120073C067
:102BA800D9FF74C0DAFF12006DC0D9FF6EC0DAFF1A
:102BB8001200B46BB56BA2390F0BB36F010EB46F73
:102BC80031D05BD88FEC21F068D851EC2EF0B56B82
:102BD80075D8B451AE6FAF6BAE3BAF3BF00EAF17CD
:102BE800AE510F0BAF13F00EAE17A0C0B0F0A1C0DE
:102BF800B1F0AE51B027AF51B123B551B027000E97
:102C0800B123F00EB025E96EFF0EB121EA6EEF5048
:102C1800B26F4CD8B219DF6EAA2BB52B0F0EB56563
:102C2800D7D7B42BB451B35DCCE24FD8D8B40F0C7E
:102C380024D88FEC21F031D851EC2EF0B56B18D098
:102C48003DD8B351100DA0C0AEF0A1C0AFF0F35005
:102C5800AE27F450AF23B551AE25E96E000EAF2173
:102C6800EA6EEF50B06F22D8B019DF6EAA2BB52BE1
:102C78002CD8AE51B55DE4E31200A4C06AF0A5C03B
:102C88006BF0A6C06CF0A7C06DF0B4C06EF0010E7A
:102C98006F6FADC070F0A3511200B50E8C6F010EAE
:102CA8008D6FA8C08EF0A9C08FF01200B50EB525A3
:102CB800E96EEA6A010EEA22EF501200AA51AB252A
:102CC800D96E000EAC21DA6E1200A2C0AEF00F0E63
:102CD800AE170F0C6051D96EDA6A0D0E60D86351C9
:102CE80083D80E0E5CD8D92A63517ED80F0E57D8D8
:102CF800020ED926635178D80C0E51D8030ED92666
:102D0800635172D84650DF1A7F0E46640CD01B0EF2
:102D180046C061F0626BD890613762376119646FA1
:102D28006251656F05D0D8904634646F656B65371E
:102D380064C046F06051D96EDA6A50D8040E40D8A3
:102D4800D92A4CD8050E3CD8020E41D8060E38D8E0
:102D5800030E3DD8070E34D8040E39D8080E30D8E3
:102D6800050E35D8090E2CD8060E31D80A0E28D8EB
:102D7800070E2DD80B0E24D8080E29D80C0E20D8F3
:102D8800090E25D80D0E1CD80A0E21D80E0E18D8FB
:102D98000B0E1DD80F0ED9266151DF1A1200D92645
:102DA800DF50616F626B6D0E6125F66E7E0E6221DB
:102DB800F76E0800F5CF63F06051D96EDA6A120039
:102DC800D9266151DF1A6051D96EDA6A1200D92604
:102DD800DF50616F6051D96EDA6A1200DF50616F9F
:102DE8006051D96EDA6A1200DF1A6051D96EDA6A58
:102DF80012000001E16B68D8EFEC2DF01F0EE01710
:102E0800FC0EE017E30EE01725EEEFF0E0C0DFFF61
:102E1800E12BE26BE2515908D96E000ED8A0E82ADE
:102E280002083FD8E265F6D7080EE127E26BE251C7
:102E38006108D96E000ED8A0E82A020832D8E265E7
:102E4800F6D7080EE127A469A369BFEC2EF0A3C04A
:102E5800D2F2A4C0D3F2EF0EE12541D845D894ECC4
:102E680028F0020EE1274CD8EF0E686F050E696F47
:102E7800E1C06AF1B9EC2AF066C1DCF067C1DDF0A7
:102E880068C1DEF069C1DFF0EF0EE12528D8DC0E5D
:102E9800626F636B31D894EC28F0040EE127E1519E
:102EA8001200DA6EEF0EDA6F050EDB6FE151DA27EA
:102EB800000EDB23E251DA25E96E000EDB21EA6E13
:102EC800DFCFEFFFE22B070CEF0E606F050E616F8F
:102ED800636B626B010E656F0F0E646F0F0C606F92
:102EE800616B050E61231200D20E626F020E636FD2
:102EF800656B020E646F020C656B040E646F040C44
:102F0800420E0101666F020E676F1200050EE12680
:102F1800000EE222020103A103A51FD0FF0EE36AFF
:102F280009D0FF0EE350A3EC10F0020EDE1808E003
:102F3800FF0EE32AFF0EE3CF49F0A751495CF1E306
:102F4800FF0EE350A71909E1A751A3EC10F0020EF8
:102F5800DF6E100EA76101D0A72B03A531D0CF518A
:102F680002E155D80DE349D877EC11F01BEC25F0B8
:102F780004EC1EF00C0EA6EC0EF0E82EFCD707D0E1
:102F880022D877EC11F01BEC25F004EC1EF0FB0EB8
:102F980050C0E3FFFC0E51C0E3FFFD0E52C0E3FF3B
:102FA800FE0E53C0E3FFE150FB0FD96EE2500DEC6B
:102FB8001EF0E75111EC2CF00201E751C4EC25F0AA
:102FC800FA0E1AEF1EF0CCC250F0CDC251F0CEC2AC
:102FD80052F0CFC253F00C0ED890503651365236BC
:102FE8005336E82EF9D750C060F051C061F052C096
:102FF80062F053C063F000017D0CCCC260F0CDC21A
:1030080061F0CEC262F0CFC263F000017D0CCC2922
:10301800FF0ECD590F0ECE5912007DD8DF50A26F8A
:103028009C4B9D2B78D8FF0EDE149E6FFF0EDE148E
:103038009F6FFF0EDE14A06F000EDE14A16F9EC0FE
:1030480090F09FC091F0A0C092F0A1C093F0640EE0
:1030580098EC06F025EC2AF090C09EF091C09FF005
:1030680092C0A0F093C0A1F0030E9C27000E9D23F0
:103078009EC060F09FC061F0A0C062F0A1C063F084
:10308800B5EC27F0000905E10201A751CBEC15F0DA
:10309800DF860001A2510F0B36EC30F0000905E184
:1030A8000201A751CBEC15F0DF880001A239070B0C
:1030B8002CEC30F0000905E10201A751CBEC15F02A
:1030C800DF8A0201A751CBEC15F0DFA81FD0A7516A
:1030D800CBEC15F0DFA61AD0A751CBEC15F0DFAA80
:1030E80015D00001A239070B0201EF6F9EC060F0F6
:1030F8009FC061F0A0C062F0A1C063F00001A251BE
:103108000F0B646F0BEC30F00201038F9CC09CF036
:103118009DC09DF012009CC0D9FF9DC0DAFF12002F
:103128009CC090F09DC091F0926B936BE80E946FE9
:10313800030EC5EC08F025EC2AF090C0CCF291C043
:10314800CDF292C0CEF293C0CFF29C519D111DE1F9
:103158000201E75165EC30F0020103950001A66B0E
:103168000ED0A651A3EC10F0020EDE1806E1A6510F
:10317800A3EC10F0DF680201A7070001A62B0201EB
:10318800A7510001A65DEDE312000201038502A923
:103198001200CF5103E10BEC18F00CE301EC18F02E
:1031A80077EC11F01BEC25F00C0E85EC11F0E82EF5
:1031B800FCD71ED0CCC29EF0CDC29FF0CEC2A0F0EC
:1031C800CFC2A1F00C0ED89000019E379F37A037D0
:1031D800A137E82EF8D79EC060F09FC061F0A0C06C
:1031E80062F0A1C063F07D0E77EC11F01BEC25F0C6
:1031F80060C0A2F061C0A3F062C0A4F063C0A5F0F3
:10320800A2C06DF0A3C06EF0A4C06FF0A5C070F0AE
:103218000201E75111EC2CF00201E751C4EF25F04F
:103228003F0E64EC2EF0DC6FDCA712005CD8DBEC00
:103238001AF00101A291A85165EC30F00101A2B980
:103248001200A65198EC2CF08A5102E151D80DE3F6
:103258000101A65198EC2CF00D0E01D050D8E82EA3
:10326800FDD72DD825EC2AF00CD00101A65198ECF9
:103278002CF025D825EC2AF00D0E01D02ED8E82EFA
:10328800FDD790C0D8F091C0D9F092C0DAF093C0C1
:10329800DBF0D8512008D46F4E0ED955D56F000EEB
:1032A800DA55D66F000EDB55D76F0101A65165ECD4
:1032B80030F0D4C0B0F0D5C0B1F05EEF04F087C0F4
:1032C80090F088C091F089C092F08AC093F07D0E8A
:1032D800946F956B966B976B7D0CD8909333923364
:1032E80091339033120097C165F0000E666F000CA1
:1032F8001F0E875DAC0E8859DF0E89591200D890D1
:103308008A338933883387331200E652020103B1C6
:1033180069D0D951D75D4BE3F5EC2BF0536E0D0E08
:103328005326FF0E53C0E3FFE350496E4A6A020179
:10333800D451495CD5514A582AE3010EC4EC26F011
:10334800000922E1FF0E7DEC25F0CEEC0EF088ECB2
:1033580025F01AE1020183EC25F0D92BD9B145D02B
:10336800DF5143E0D951496E4A6AD751526E536AC8
:10337800522A000E53224950521803E14A5053185A
:1033880034E066EC23F031D0BFEC28F02ED06EECA0
:1033980030F0010179517A1128E096EC0CF0040E16
:1033A800636F01D822D005000101FA6E13D0D951FC
:1033B800D75D1BE203B119D06EEC30F001017951F1
:1033C8007A1113E096EC0CF0636F01D80ED005006B
:1033D8000101FA6E7951FD6E7A51FE6EF850FF6E5A
:1033E800FA5012006EEC30F000D0E552E5521200AF
:1033F80021EEC7F000EEA7F00F0EDBCFEBFFE806DB
:10340800FCE2B70E606F616BC4EC21F0EFEC2DF0BD
:10341800B70E8C6F8D6BA0C08EF0A1C08FF051ECF1
:103428002EF0B7BF04D04BD870EC2AF016D047D88E
:1034380070EC2AF0C76BC751A70FD96EDA6ADF5054
:10344800A66FC751A225D96E000EA321DA6EA65128
:10345800DF1AC72B0F0EC765EED7A2C0D9FFA3C0CE
:10346800DAFFDFBE03D020D870EF2AF01DD870EC49
:103478002AF0C76BC751A425D96E000EA521DA6EB4
:10348800C751A70FE96EEA6AEF50A66FC751A42586
:10349800E96E000EA521EA6EEF50A619DF6EC72B64
:1034A8000F0EC765E7D70F0CA2C060F0A3C061F08C
:1034B800A4C062F0A5C063F0100E646F100CB70EC4
:1034C800606F616BA2C062F0A3C063F0100E646FFE
:1034D800100C00019469956996699769986B3AD0C0
:1034E8000001985186EC21F033E1985151EC06F037
:1034F800BBEC0EF02DE0985151EC06F0DE50945DD7
:10350800DE509559DE509659DE50975921E398516F
:103518007EEC21F0DF500F0B906F90510201DF5DC0
:1035280017E3000198517EEC21F0DF380F0B906F04
:103538000201DF510001905D0BE3985151EC06F058
:10354800DECF94F0DECF95F0DECF96F0DECF97F0A9
:103558000001982B98510201ED5DC2E29CEC0CF041
:1035680094C090F095C091F096C092F097C093F0F7
:103578000C0ED89000019037913792379337E82E88
:10358800F8D790C060F091C061F092C062F093C02B
:1035980063F07D0E77EC11F01BEC25F073EC06F070
:1035A800E65111EC2CF00201E651C4EF25F06A6FE8
:1035B8000001655108E1060E6A19D8B41200070E19
:1035C8006A1901E11200070E6A17010E651764EC0B
:1035D8002EF06B6F6BAF03D0010E676F01D0676B76
:1035E8006B51070B696F6751651916E0695108E05F
:1035F8006B51F80B626F010E2EEC2FF00001696B16
:10360800655103E1780E6B1704D06B51780B800974
:103618006B6F37D82EEC2FF0000169516A19D8B4B6
:1036280012006A5112E0660510E1410E64EC2EF0BA
:10363800686F655103E1300E681302D0CF0E68172A
:1036480068C062F0410E2EEC2FF0F80E00016B17E7
:103658006A516B1316D82EEC2FF000016605D8A41A
:1036680012006A5105E00DEC31F00009FCE012008F
:1036780002D8C4EF2DF0010E606F616B626B636B53
:10368800010C6BC062F0010C7D6A7C6A796A7E6A03
:103698007A6A7F6A7B6A806A856886688168DF0ED5
:1036A800876E82680F0E886EF90E836E9F0E846E89
:1036B800E00E0E019A6F7F0EA76FAF69BC69B469FF
:1036C8009269A669B369AE699969BB699169A1698B
:1036D8000F0EC06FAD6BB26B906BBA6B986BBF6B14
:1036E800A06BA56B939994899589640E0001606F0E
:1036F800620E616FA7EC30F00E012989000EF2BE50
:10370800010E0001626FF29E25D8EF91F151C00BB6
:103718000909F16FF351C00B0B09F36F1C0E0E0171
:103728006F6F0D01F051C00B0809F06FF251C00B1B
:103738000A09F26F1B0E0E01706F1D51C00B1F0995
:103748001D6F08D8EF81000162A102D0F28EAA0C89
:10375800F29E1200550E0D01EF6FAA0EEF6FAA0C24
:103768006DC060F06EC061F06FC062F070C063F051
:10377800090E00015BD81BEC25F060C075F061C034
:1037880076F062C077F063C078F06DC060F06EC00C
:1037980061F06FC062F070C063F0090E646F3D0E97
:1037A800656F666B676B26EC27F060C071F061C0CF
:1037B80072F062C073F063C074F077C078F076C0BE
:1037C80077F075C076F0756B73C074F072C073F0E3
:1037D80071C072F0716B71C060F072C061F073C03B
:1037E80062F074C063F0090E21D81BEC25F060C0AC
:1037F80071F061C072F062C073F063C074F071510F
:10380800752772517623735177237451782377C0C3
:1038180062F0060E2EEC2FF076C062F0070E2EEC4A
:103828002FF075C062F0080E2EEF2FF0646F3D0E7A
:10383800656F666B676B3D0C00EC2FF001C042F0C2
:1038480002C043F044041EE1446A59D8D8A00D06CA
:103858000D500E6E2DD8136E39501020146E3A503C
:103868001120156E3B501220166E000E1324306E78
:10387800000E1420316E010E1520326E000E162037
:1038880026D80DD03CD80E6A13D8306E3950102087
:10389800316E3A501120326E3B50122026D830C07B
:1038A80007F031C008F032C009F033C00AF0120046
:1038B80034500B5C0F6E35500C58106E36500D5846
:1038C800116E37500E58126E38500F241200336E96
:1038D80042C034F043C035F0366A376A386A396A0C
:1038E8003A6A3B6AFD6BFE6B1200336E3050342629
:1038F800315035223250362233503722120000011F
:10390800FD51425C0B6EFE5143580C6E0D6A12005D
:103918000001666F01019C5125E100016651800A92
:10392800830F02E2FD0E666F6651800A700F02E394
:103938000F0E666F4D0E64EC2EF0656FF80E65176E
:10394800658549D82EEC2FF0000166AF05D0030E2F
:1039580066276651200902D066517009626F090E08
:103968002EEF2FF000016651800A7E0F02E2020E50
:10397800666F6651800A6C0F02E3140E05D066511B
:10398800800A6E0F02E3110E666F0B0E64EC2EF0C8
:10399800646F4D0E64EC2EF0656FF80E6517140E0B
:1039A800661906E1070E65130F0E666F649B04D057
:1039B8006585FE0E6627648B0ED82EEC2FF000016D
:1039C80066518009626F090E2EEC2FF064C062F018
:1039D8000B0E2EEF2FF065C062F04D0C20EE01F0BB
:1039E8005DD8DF50626F20EE05F058D800EE01F088
:1039F8004ED820EE09F052D800EE05F048D820EE57
:103A08000DF04CD800EE09F042D820EE0DF046D863
:103A180062C0DFFF20EE02F041D8DF50626F20EE77
:103A28000AF03CD800EE02F032D820EE0AF036D880
:103A380062C0DFFF20EE0EF031D8DF50626F20EE5B
:103A480006F02CD800EE0EF022D820EE06F026D88C
:103A580062C0DFFF20EE03F021D8DF50626F20EE56
:103A68000FF01CD800EE03F012D820EE0BF016D899
:103A780000EE0FF00CD820EE07F010D800EE0BF097
:103A880006D820EE07F00AD862C0DFFF12006051A6
:103A9800E9266151EA22DFCFEFFF12006051D926F3
:103AA8006151DA221200626F000162510E0D3FD897
:103AB80060C0DFFF62510E0D3AD8DF5004E1625159
:103AC80051EC06F03BD8636B26D063517EEC21F0B5
:103AD800DF500F0B0001616F0201EB510001615DC6
:103AE80008E2635186EC21F004E163517EEC21F099
:103AF80035D8000163517EEC21F035D8EC6109D04E
:103B08000001635186EC21F004E163517EEC21F061
:103B180020D80001632B0201ED510001635DD5E35C
:103B28000201DF51EC5D0FE2ECC2DFF20CD0040EB3
:103B3800F324D96E040EF420DA6E1200DE6ADE6A0F
:103B4800DE6ADD6A1200EB51DF5DD8A0EBC2DFF25E
:103B58001200DF380F0B0201EC6F1200DF500F0B61
:103B68000201EB6F1200DF380F0B02011200E65260
:103B7800E652E652E652020100950289F00E02175B
:103B8800D06BD16BEE6B03A527D0CF5103E10BECC3
:103B980018F00DE301EC18F077EC11F01BEC25F0B0
:103BA8002FD80C0EA6EC0EF0E82EFCD707D0E7ECC9
:103BB80017F077EC11F01BEC25F022D823EC20F05D
:103BC800E150FC0FD96EE25024D8E75111EC2CF0EB
:103BD8000201E751C4EC25F001017B517C110EE094
:103BE80021EE7BF001D80AD00500FA6EDE50FD6E9A
:103BF800DE50FE6EF850FF6EFA50010CFB0E16D028
:103C080060C050F061C051F062C052F063C053F020
:103C18001200DA6EFF0EDA22DECF6DF0DECF6EF024
:103C2800DECF6FF0DECF70F00201FF0CE126FF0E51
:103C3800E222FF0C6AEC2FF0F28EF28C7B84600E8D
:103C4800A86F620EA96F020EAA6F620EAB6FFFEC2F
:103C580029F0E70E00016A6F010E6B6F04EC2EF07D
:103C6800D70E00016A6F010E6B6FE3EC2CF0800E2B
:103C78000001606F650E616F000E626B636BA0ECF4
:103C88002FF0010E20EC23F003D09DEC2BF07B9459
:103C980001017D51FAE0766B050E756F9DEC2BF0F6
:103CA8000101754B762B76BF0BD0765103E10B0ED5
:103CB800755D06E3756B766B63EC29F010EC2FF0FD
:103CC8000101776B786B060E0101746F300EE82ED8
:103CD800FED7742FFCD700F00101774B782B78BF03
:103CE800F2D7E80E775D030E7859D8E2ECD70001D9
:103CF800DF6F020103A102BF120002A91200010135
:103D08006B5103E16E5101E01200F5EC2BF0DD6F11
:103D180001016E510001DD5D01E212000201062978
:103D280008E1072906E1082904E1092902E10483D9
:103D3800120002510F0B03E0125101E11200010EB3
:103D4800C4EC26F0DE6FDE5101E01200020E020123
:103D5800121902E1DCEC2FF06BC166F16CC167F15E
:103D68006DC168F16EC169F101016A6B0001DF5133
:103D78003EEC0AF0FF0E00017DEC25F0CEEC0EF0D3
:103D8800A651A711D8A412000201062B000E072382
:103D9800082309230001DF0502E102010081020175
:103DA800008B83EF25F0120E64EC2EF0F96F700E85
:103DB800626F120E2EEC2FF00001F951500B500AD1
:103DC800D8A412000101A85165EC30F01C0E64EC77
:103DD8002EF0FA6F01019B5104E00001F9ABFAAD36
:103DE80031D0130E64EC2EF00101A36FCFEC08F074
:103DF8002EEC2FF021EC31F0000ED9EC30F0000160
:103E0800FA6B08D0FA5112EC23F0D9EC30F0DF6EDF
:103E18000001FA2B0101A3510001FA5DF3E31FEC45
:103E280031F00101A285190E64EC2EF00101B16F89
:103E3800040E0001606F0101B151E9EC28F00101A5
:103E4800B16F02D00101A28766EC2DF0DBEC1AF00D
:103E58000101A29319EC23F04BEF00F000018269F5
:103E6800836984698569E6EC20F066C07EF067C0E6
:103E78007FF068C080F069C081F0866B35D08651CC
:103E8800DBEC23F0DE042FE186513AD8DE507E5D6C
:103E9800DE507F59DE508059DE50815905E3865146
:103EA8002FD8A2EC1DF01FD086512AD87E51DE5E95
:103EB8007F51DE5A8051DE5A8151DE5A865120D810
:103EC8008251DE5C8351DE588451DE588551DE58BC
:103ED8000AE2865115D8DECF82F0DECF83F0DECF3E
:103EE80084F0DECF85F0862BFF51865DC8E382C063
:103EF80076F083C077F084C078F085C079F012003E
:103F0800080D000EF324D96E030EF420DA6E1200A9
:103F18000001AD6FAC6BADC0A3F0A46BBFEC2EF08D
:103F2800A329AE6FAEC0ABF03DD0AF6B30D0AF5170
:103F380086EC21F02AE1AF5151EC06F0BBEC0EF013
:103F480024E1AF517EEC21F0DF500F0B0001A76F89
:103F5800A7510201DF5D19E30001AF517EEC21F0AA
:103F6800DF380F0BA76F0201DF510001A75D0DE3DA
:103F7800A5510AE1AF510E0D0C0EF324D96E040EB3
:103F8800F420DA6EDE0401E1AE070001AF2BAD517B
:103F9800AF5D02E2AE51CBE1AB51AE1903E1090EC0
:103FA800AC6F02D0AE51C1E1AF5106E0A651D96E57
:103FB800DA6AAF05DF6E02D0090EAC6FAC511200A1
:103FC800E652E652E652E652020103B135D0020E3D
:103FD800121902E1DCEC2FF00201EF51175D04E346
:103FE800EF51175D176F01D0176B53EC30F060C0BD
:103FF80050F061C051F062C052F063C053F01FD856
:104008000251F00B0309026F0AEC31F0E150FC0F8A
:10401800A0EC0EF0DECF72F0DECF73F0DECF74F0DE
:10402800DECF75F0020117513EEC2EF0850E02012D
:10403800172512D8B4EC10F0FB0E1AEF1EF0FC0E88
:1040480050C0E3FFFD0E51C0E3FFFE0E52C0E3FF78
:10405800FF0E53C0E3FFFF0CF66EF76A7F0EF722E0
:104068000800F5500001A66FA76B1200C80E0001EA
:104078004DD8E251AEEC2DF042D8E351AEEC2DF024
:10408800140E606F2F0E616F626B0201E751AEEC88
:104098002DF0C80E3BD8E451AEEC2DF030D8E551E8
:1040A800AEEC2DF0120E606F330E616F626B020181
:1040B800E851AEEC2DF0000E606F600E616F626B20
:1040C8000201E651AEEC2DF0AC0E606F4A0E616F46
:1040D800626B0201EA51AEEC2DF0760E606F3B0E7A
:1040E800616F626B0201F351AEEC2DF0840E606FCC
:1040F8001B0E616F626B0201E951AEEF2DF0640E89
:10410800606F440E616F626B02011200606F3F0EB8
:10411800616F626B020112002368246825682668B3
:1041280020EC1CF007C01FF008C020F009C021F0E7
:104138000AC022F0276A3AD02750DBEC23F0DE04CD
:1041480034E1275084EC1FF0DE501F5CDE5020580D
:10415800DE502158DE50225806E3275084EC1FF029
:10416800A2EC1DF022D0275084EC1FF01F50DE5E19
:104178002050DE5A2150DE5A2250DE5A275084EC55
:104188001FF02350DE5C2450DE582550DE582650A0
:10419800DE580BE2275084EC1FF0DECF23F0DECF91
:1041A80024F0DECF25F0DECF26F0272AFF51275C4A
:1041B800C3E323C017F024C018F025C019F026C0A7
:1041C8001AF01200F0EC2EF060C042F061C043F02B
:1041D80044041FE1446A43D8D8A06C076C516D6F42
:1041E8002FD8726F39506F21736F3A507021746FE6
:1041F8003B507121756F000E7225306E000E7321D1
:10420800316E010E7421326E000E75216BEC1CF0BC
:104218000ED025D86D6B14D8306E39506F21316EA1
:104228003A507021326E3B50712179EC1CF030C04D
:1042380066F031C067F032C068F033C069F0120030
:1042480034506A5D6E6F35506B596F6F36506C59CC
:10425800706F37506D59716F38506E251200FD51CF
:10426800425C6A6FFE5143586B6F6C6B1200626F51
:10427800070E0201EB6FEC6B000162513BD860C086
:10428800DFFF62517AEC2DF0000EDB82636B23D0E6
:10429800635130D8DF500F0B0001616F0201EB5101
:1042A8000001615D07E263512DD804E1635122D812
:1042B800B2EC1DF0000163511DD8B7EC1DF0EC61A4
:1042C80008D0000163511ED804E1635113D8ADEC46
:1042D8001DF00001632B0201ED510001635DD8E37D
:1042E8000201DF51EC5D02E3A7EF1DF0ECC2DFF243
:1042F800A7EF1DF00E0D050EF324D96E040EF42061
:10430800DA6E12000E0D040EF324D96E040EF4209A
:10431800DA6EDE041200716F0001726B3ED830D87D
:10432800EFEC2DF06FC0B5F1050E72273FD871C0C4
:10433800DFFF722B705108E129D834D81CD894ECCF
:1043480028F0040E722708D021D8620E626F020E80
:1043580012D894EC28F0F5D719D86A0E626F636BFF
:1043680080EC17F094EC28F0040E7227722B1ED8FC
:104378006EC0DFFF1200636F656B040E646F040C80
:10438800636B626B656B100E646F100CB50E722553
:10439800606F616B010E61231200B50E606F010E34
:1043A800616F12001E0E626F020E1200B50E7225AA
:1043B800D96EDA6A010EDA221200960EF66E590EDE
:1043C800F76E000EF86E01EEC7F020EE30F009002F
:1043D800F5CFEEFFDD50D950FAE1BC0EF66E610E56
:1043E800F76E000EF86E00EE54F020EE08F00900AB
:1043F800F5CFEEFFDD50D950FAE104EEE0F022EE01
:104408001EF0EE6ADD50D950FCE1DA50FAE104EE14
:1044180000F0E00EEE6AE806FDE103EE00F0A00E03
:10442800EE6AE806FDE102EE00F0F50EEE6AE80637
:10443800FDE101EE79F04E0EEE6AE806FDE10001BD
:10444800FF6BFE6BFD6B00EE30F0180EEE6AE806AF
:10445800FDE1000EF86E00011EEF1EF0020103B12F
:1044680043D007EC31F0536E53B23AD002010251F7
:10447800F00B0509026FDCEC2FF00AEC31F0B9EC17
:1044880026F03EEC2EF00201125125E1850E1C2586
:1044980030EC20F0B4EC10F0A6C049F0A7C04AF008
:1044A80049504A1029E06EEC30F0C0EC30F00101C0
:1044B80079517A1121E096EC0CF0636F01D81CD089
:1044C80005000101FA6E7951FD6E7A51FE6EF850C1
:1044D800FF6EFA50120040EC04F093EC26F00CD07A
:1044E800010E0201F16F08D000A502D000950299D3
:1044F800C0EC30F06EEC30F0E5521200A85165ECDB
:1045080030F0080E626F120E2EEC2FF066EC2DF0D4
:10451800DBEC1AF00101A291A2B91200A65198ECA5
:104528002CF08A5103E17CEC19F00FE30101A6514C
:1045380098EC2CF00D0E02D083EC19F0E82EFCD785
:1045480063EC19F025EC2AF00ED00101A65198EC85
:104558002CF063EC19F025EC2AF00D0E02D071EC6A
:1045680019F0E82EFCD790C0D8F091C0D9F092C0CD
:10457800DAF093C0DBF0D8512008D46F4E0ED9552D
:10458800D56F000EDA55D66F000EDB55D76FD4C045
:10459800B0F0D5C0B1F05EEF04F03F0E64EC2EF041
:1045A800F96FF9A512000101A85165EC30F001017D
:1045B800A75165EC30F021EC31F0000ED9EC30F069
:1045C800FF0ED9EC30F00101A36F0001FA6B07D0A0
:1045D800FA5124D8D9EC30F0DF6E0001FA2B010132
:1045E800A3510001FA5DF4E31FEC31F066EC2DF005
:1045F800DBEC1AF00101A293800EB16F9B0503E179
:104608000001F9A303D00101A28502D00101A295FE
:10461800A2A590EF0BF009D84BEF00F00101A425FB
:10462800D96E000EA521DA6EFF0CA4C16FF1A5C1E9
:1046380070F1A3C171F112000001E56F020103A13D
:1046480002BF120002510F0B01E01200E5C01DF27B
:104658000001E5511FE10201A5B1A5A31200A5A71C
:104668001200FDEC16F0E36F000EC4EC26F0E46FC8
:10467800E451D8A41200EF0EA66F050EA76FE3C091
:10468800A8F0CEEC0EF0A651A711D8A41200010E86
:1046980093EF2FF00201A5BBA5A91200A5A5120052
:1046A800070E93EC2FF08F0E00016D6F020E6E6FE8
:1046B8006F6B706B0201F35111EC2CF00201F35196
:1046C800C4EF25F00001616B0201DF51EB5D3AE2B6
:1046D800DF050001636F2AD0626B1BD062517EEC4C
:1046E80021F0DF500F0B0001606F6051635D10E334
:1046F80062517EEC21F0DF380F0B606F6351605D13
:1047080007E3625186EC21F003E1010E616F06D0E8
:10471800622B0201ED510001625DE0E3615106E1A7
:1047280063510201EB5D02E2000163070001615180
:1047380005E10201EB510001635DCEE2610502E192
:1047480063C0DFF2000161511200F29E0001E46BC8
:1047580029D0E4512CD8DE0423E1E45184EC1FF085
:10476800BBEC0EF01DE1E45122D8DF6AE45127D8F2
:10477800DE50DE1015E0F28EE451BCEC2DF0DF5077
:10478800E66EE4511CD801D80AD00500FA6EDE5056
:10479800FD6EDE50FE6EF850FF6EFA501200F29E6B
:1047A8000001E42BFF51E45DD4E3F28E1200080D02
:1047B800040EF324D96E030EF420DA6E1200080DED
:1047C800060EF324D96E030EF420DA6E1200400EA2
:1047D8000001605D740E61592A0E6259080E635912
:1047E80009E3C10E605D490E61596E0E62590A0EE9
:1047F800635925E3800E605D1A0E6159700E625987
:10480800180E635909E3410E605DDD0E61594A0EC9
:1048180062591F0E635913E3800E605D130E6159D0
:10482800610E6259330E6359D8A012006005F70E65
:104838006159CB0E62593C0E6359D8B0120060C062
:104848007FF161C080F162C081F163C082F1120022
:104858000001666B676B1CD06751A3EC10F0DE2873
:1048680016E01DD8A3EC10F01FD866C064F0656B85
:104878006427000E652365BF05D065510EE1100E53
:10488800645D0BE20CD8A3EC10F00ED86627672BFA
:104898000201A7510001675DDFE366511200FE0EB9
:1048A800606F616967511200DF50626F636B60511E
:1048B8006227615163239B0E6225F66E7F0E63218A
:1048C800F76E0800F550120000016E6B6F6B31D85F
:1048D800DBEC1AF000016269110E2EEC2FF0010ECC
:1048E80024D8DBEC1AF00001706B3FEC1BF0C4EC31
:1048F8002DF0D8906E376F372C0E64EC2EF0010B2C
:104908006E13702B0F0E7065F0D713D8DBEC1AF00E
:1049180014D82EEC2FF00001626B110E2EEC2FF044
:104928006EC06CF06FC06DF012000001656F666FAD
:10493800050C010E656F666F000C00016269120CB0
:104948005B505A10591004E10B0E585CD8A01200A5
:104958005850685D595069595A506A595B506B599B
:10496800D8B0120068C058F069C059F06AC05AF04F
:104978006BC05BF0FDC070F0FEC071F068510008BC
:10498800FD6F69515EEC29F0FDC066F0FEC067F06E
:1049980063EC2CF066C06EF067C06FF070516E5D0E
:1049A8006C6F71516F596D6F6C5138266D5139228A
:1049B800000E3A223B22000C716F6D0E2FD87F0E2D
:1049C80032D8F2EC30F06DC060F06EC061F06FC0AC
:1049D80062F070C063F0EBEC23F0000E616B606B6B
:1049E800CFEC30F0070E716112D0940E7125F66E7F
:1049F800F76A7F0E18D8EEEC30F08D0E0FD87F0EC8
:104A080012D8F6EC30F00201F451D4EF30F0FC0E7D
:104A18006A6F7F0E6B6F030E98EF2DF00001712502
:104A2800F66EF76A1200F7220800F5501200686B5C
:104A3800696B6A6B6B6B645165116611671129E0CC
:104A4800010E6C6F06D0D8906437653766376737C4
:104A58006C2B67AFF8D7D890683769376A376B37E8
:104A68006451605D65516159665162596751635976
:104A780009E36451605F6551615B6651625B675130
:104A8800635B6881D89067336633653364336C2F12
:104A9800E2D768C060F069C061F06AC062F06BC0BC
:104AA80063F01200010EC4EC26F000090AE1FF0EC3
:104AB80020D8CEEC0EF028D804E10201D82B1FD85C
:104AC80016D0C0EC30F0010179517A1110E096EC63
:104AD8000CF0636F01D80BD005000101FA6E795113
:104AE800FD6E7A51FE6EF850FF6EFA501200E552D4
:104AF8001200A66F050EA76FD4C2A8F012000251CB
:104B0800F00B0109026F1200A6C049F0A7C04AF0D5
:104B180049504A101200070EEB6FEC6B0001616BF5
:104B280029D061517EEC21F0DF500F0B0001606F3E
:104B38000201EB510001605D09E2615186EC21F050
:104B480005E161517EEC21F0B2EC1DF000016151EC
:104B58007EEC21F0B7EC1DF0EC610AD00001615148
:104B680086EC21F005E161517EEC21F0ADEC1DF001
:104B78000001612B0201ED510001615DD2E31200D9
:104B880000018F6FF29E32EC1FF076C08BF077C079
:104B98008CF078C08DF079C08EF08F5184EC1FF0C6
:104BA8008B51DE5C8C51DE588D51DE588E51DE58AB
:104BB8000BE28F5184EC1FF0DECF8BF0DECF8CF050
:104BC800DECF8DF0DECF8EF08BC068F08CC069F040
:104BD8008DC06AF08EC06BF0A4EC24F08F51DBEC32
:104BE80023F0010EDF6EF28E010C400E64EC2EF005
:104BF800FB6F060EFC6FD890FB33FC2FFCD7FB51E4
:104C0800030B0101726F010E64EC2EF00101736F4A
:104C180073AF1CD003D0010EE0EF2EF0725102E109
:104C2800D7EF1EF0010A02E182EF22F0F4D7070E57
:104C38007317030E731902E114EF19F0050E7319B7
:104C480002E1D1EF22F0000EE0EF2EF07251EFE01A
:104C5800FAD7320E00016A6F020E1CD8E3EC27F077
:104C6800020E0201326F320E00018C6F020E1FD845
:104C780051EC2EF0220E6A6F020E0CD8E3EC27F0EE
:104C8800010E0201226F220E00018C6F020E0FD856
:104C980051EF2EF06B6FA0296C6F000EA1216D6F84
:104CA800040EA0256E6F000EA1216F6F12008D6F8C
:104CB800420E8E6F020E8F6F12002CD806E0025142
:104CC8000F0B030A1FE1F1511DE00091F00E0217CE
:104CD800125116E1010179517A1112E00201009B8B
:104CE80096EC0CF0636F01D80BD005000101FA6E49
:104CF8007951FD6E7A51FE6EF850FF6EFA5012002F
:104D080002010393020E1219D8A4120040EC04F019
:104D180093EF26F0020102510F0B050A1200DCEC9A
:104D28002FF00AEC31F021D83EEC2EF00001A76BF1
:104D3800A66BB4EC10F0A651A711D8B412006EEC13
:104D480030F0C0EC30F0D2EC03F0D8B4120096EC9E
:104D58000CF0636F05000101FA6E7951FD6E7A510E
:104D6800FE6EF850FF6EFA50120018C272F019C2A7
:104D780073F01AC274F01BC275F002011C511200C4
:104D88000001B06FB0C0A5F0B20EA66F100E8CEC8B
:104D98001FF0B16FB1511AE1B2C0DAF2B25119D8AD
:104DA800DECF13F2DECF14F2DECF15F2DECF16F22D
:104DB800DFC217F213C272F014C273F015C274F096
:104DC80016C275F002011751FEEC2AF00001B1512C
:104DD80012000E0D000EF324D96E040EF420DA6EC4
:104DE80012000001716B480E726FE80E736F010EAE
:104DF800746F71C060F072C061F073C062F074C00B
:104E080063F06DC064F06EC065F06FC066F070C08E
:104E180067F01BEC25F060C071F061C072F062C0F1
:104E280073F063C074F072C062F0020E2EEC2FF0C3
:104E380071C062F0030E2EEC2FF00001626B5D0E64
:104E48002EEF2FF0645165116611671123E0010EF2
:104E5800686F06D0D8906437653766376737682B30
:104E680067AFF8D76451605D655161596651625901
:104E78006751635908E36451605F6551615B66512E
:104E8800625B6751635BD89067336633653364331D
:104E9800682FE8D760C060F061C061F062C062F05E
:104EA80063C063F012006DC071F06EC072F06FC025
:104EB80073F070C074F073C074F072C073F071C096
:104EC80072F00001716B71C060F072C061F073C064
:104ED80062F074C063F0090E1AEC1CF01BEC25F0AC
:104EE80060C071F061C072F062C073F063C074F0AA
:104EF80072C062F0040E2EEC2FF071C062F0050E45
:104F08002EEF2FF019D8EFEC2DF021D8A80E626FF4
:104F18007F0E22D894EC28F0030E6A6F6A51ADEC2C
:104F280006F0DE68DD686A517EEC21F0DF686A2BE6
:104F38000F0E6A65F3D70F0C000E0001606F040EA8
:104F4800616F636B626B656BE00E646FE00C000E63
:104F5800606F040E616F1200636F656B2A0E646FD9
:104F68002A0C646B0201A45116E1810E0001605DF8
:104F7800250E6159DB0E6259330E635909E2C00EE2
:104F8800605D550E6159700E6259330E635915E212
:104F9800030E646F12D0710E0001605D5E0E6159E0
:104FA800EA0E6259190E6359F3E2900E605DD10E54
:104FB8006159CF0E6259190EE9D764511200706B0E
:104FC8006AC060F06BC061F0C4EC21F0EFEC2DF02A
:104FD800702B18D86CC062F06DC063F01AD894ECCE
:104FE80028F0030E70270ED86EC062F06FC063F011
:104FF80010D894EC28F0030E702704D878EC17F03A
:1050080094EF28F070516A25606F000E6B21616F74
:105018001200656B030E646F030C060E66190CE133
:1050280067C069F005D021D857EC1DF00001692B45
:105038006851695DF8E312006651D8A4120067C090
:1050480069F00FD064A104D010D857EC1DF004D03B
:10505800606B695157EC1DF00001D89065336433DB
:10506800692B6851695DEEE31200010E606F6951AA
:105078001200000123D8DFBA000C20D8DFBC000CD6
:1050880060C0D9FF61C0DAFFDF38E832070B030AD6
:1050980001E0000C13D8DF500F0B01E0000C20EEEC
:1050A80008F06051D9266151DA22DF5001E1000C85
:1050B80005D8DFA8010C02010087010C20EE05F0DD
:1050C8006051D9266151DA2212003393F2826A0EB6
:1050D8000001606F620E616FB6EC30F00E0129833B
:1050E8003395F284680E0001606F620E616FB1EC57
:1050F80030F00E0129853391F280000E0001606BBB
:10510800616B2FEC31F00E013397F286660E0001C9
:10511800606F620E616FACEC30F00E0129871200EF
:1051280062C068F063C069F060C066F061C067F093
:105138001AD068C0F6FF69C0F7FFF86A66C0D9FFE1
:1051480067C0DAFF070EF76403D00800F55005D0F2
:10515800F6CFE9FFF7CFEAFFEF50DF6E0001684BAB
:10516800692B664B672B6407D8A065076429E1E1C2
:105178006529DFE1120002019CEC0CF0A05100014E
:10518800906F0201A1510001916F926B936B0C0E0D
:10519800D8909037913792379337E82EF9D790C047
:1051A80060F091C061F092C062F093C063F07D0E30
:1051B80077EC11F01BEC25F073EC06F0E85111ECDC
:1051C8002CF00201E851C4EF25F00001646F626B16
:1051D80060AF03D0606D010E626F64AF03D0646D81
:1051E800010E621B636B605114E0010E616F03D006
:1051F800D8906037612B60AFFBD7D8906337605188
:10520800645D03E36051645F6381D8906033612F0C
:10521800F4D7625101E0636D635112007EEC2BF00C
:105228000201E26F7EEC2BF00201E36F7EEC2BF0C3
:105238000201E46F7EEC2BF00201E56F7EEC2BF0AF
:105248000201E76F7EEC2BF00201E86F7EEC2BF099
:105258000201E66F7EEC2BF00201EA6F7EEC2BF088
:105268000201F36F7EEC2BF00201E96F1200010ED0
:10527800446E90EC20F017C058F018C059F019C0CF
:105288005AF01AC05BF05B5014E15A04D8B012000F
:1052980058500008FD6F59500DD8FDC007F0FEC0EA
:1052A80008F01FEC2BF007C038F008C039F03A6A54
:1052B8003B6A1200D8A0E82A0008FE6F120000011D
:1052C800616B010E7BA4000EFF0A606F60476047A8
:1052D8007B506019FB0B60197B6E820E0001606FBA
:1052E800DD0EE82EFED7602FFCD700D0820E00011D
:1052F800606FDD0EE82EFED7602FFCD700D00001CE
:10530800612B090E6165DDD77B94090C60C0D9FF5C
:1053180061C0DAFFDF50656F604B612B0F0E65616E
:1053280012D065C062F0010E636F646B622B03D00C
:10533800D89063376437622FFBD763C0DBF264C051
:10534800DCF20201038D0001652902E10201028FEE
:1053580060C060F061C061F0120054C090F055C0A8
:1053680091F056C092F057C093F06D0E946F4E0EA8
:10537800956FC60E966F410E976F25EC2AF090C078
:1053880054F091C055F092C056F093C057F0390EC2
:105398005426300E5522000E5622572256509C6F26
:1053A8007F0E57149D6F1200E25165EC30F0020138
:1053B800E35165EC30F00201E75165EC30F0020191
:1053C800E45165EC30F00201E55165EC30F0020182
:1053D800E85165EC30F00201E65165EC30F002016D
:1053E800EA5165EC30F00201F35165EC30F002014E
:1053F800E95165EF30F00201F05108E112EC29F0B3
:105408003AEC20F0010E0201F06F02D0D8EC29F03E
:10541800A8C079F1A9C07AF1AAC07BF1ABC07CF130
:10542800F00E00016CEC14F093EC11F068EC24F031
:105438006CC071F06DC072F07DEC30F0000EDDEFE5
:1054480013F0986B996B9A6B9B6B90A108D0945151
:1054580098279551992396519A2397519B23D89031
:105468009437953796379737D8909333923391334B
:1054780090339051911192119311E7E198C090F0F7
:1054880099C091F09AC092F09BC093F012001CD87A
:10549800DFAE02D00201028D17D8DFA802D00201C8
:1054A800008712D8DFAC02D00201008960C0D9FFA2
:1054B80061C0DAFF0001DF38E832070B050AD8A41B
:1054C8001200020100831200000120EE05F0605175
:1054D800D9266151DA221200676B666B64C067F0E7
:1054E8001CD067516225D96E000E6321DA6E6751B0
:1054F8006025E96E000E6121EA6EEF50656FD89065
:1055080065356611DF6E67516025D96E000E612121
:10551800DA6E010EDFAE000E666F67076729E1E1FC
:105528001200400E64EC2EF0796FD8907933D89041
:105538007931030B7A6F010E64EC2EF0010E64ECE6
:105548002EF0796F79AF120003D0010EE0EF2EF044
:105558007A5102E1FAEF2CF0010A02E1FAEF2CF09D
:10556800030A02E1FAEF2CF0F0D70001D66BD76BF3
:10557800D86BD96B66C1C8F067C1C9F0B50ECA6FE0
:10558800010ECB6F68C1CCF069C1CDF06AC1CEF015
:10559800D2EC08F0D60E9DEC03F094EC28F0D6C0BF
:1055A80066F1D7C067F1D8C068F1D9C069F11200B7
:1055B800340ECF6ED06AD16A010ED26E0B0ECE6E4B
:1055C800DC0ECD6ECD50CECF62F00001636B62C0B1
:1055D80063F0626B62115C6E63515D6E0E0138910F
:1055E8002E81620E0001606F620E616FA2EC30F0D6
:1055F80019EF31F00001766F72C06DF073C06EF074
:1056080074C06FF075C070F07651E0EC24F0A20E13
:105618000201E125F66EF76A7F0EF7220800F5CF42
:1056280077F000017751EAEC30F0010ECAEC30F067
:10563800000EC5EF30F000EC2FF001C040F002C0C2
:1056480041F000EC2FF04050011803E141500218DE
:10565800F8E007C001F008C002F0F4EC2FF005D81C
:105668003EC007F03FC008F01200404A412A40C03F
:105678003EF041C03FF01200706B716B726B736B40
:10568800700E606F616B6C516A256E6F000E6B2136
:105698006F6FFC0E6E25626FFF0E6F21BFEC21F05D
:1056A80094EC28F070C06AF071C06BF072C06CF0B6
:1056B80073C06DF01200A051A11117E0010EA26F86
:1056C80004D0D890A037A137A22BA1AFFAD7A05108
:1056D8009E5DA1519F5904E3A0519E5FA1519F5B1C
:1056E800D890A133A033A22FF2D79EC09EF09FC0BE
:1056F8009FF01200140E0001FF6118D0F29EFFC047
:1057080060F06051DBEC23F0DF6A605184EC1FF03D
:10571800A2EC1DF06051BCEC2DF0DF6A6051E3ECA7
:1057280023F0DE6ADD6AFF2BF28E01D0FFD76051CD
:105738001200A9EC23F076EC30F001017E6F7EB107
:10574800F9EC25F001017EB3BBEC2BF001017EB52D
:1057580095EC2AF001017EB7C4EC2FF001017EB967
:10576800B8EC2FF001017EBBACEC2FF01200400E1C
:1057780064EC2EF0C06FC0390F0B030BC16F010E24
:1057880064EC2EF0C06FC0AF0DD003D0010EE0EF77
:105798002EF0C15102E156EF2DF0010A02E1FAEFB5
:1057A8002CF0F4D7C1511200A0EC27F0EFEC2DF04B
:1057B800ABEC27F0D20E626F7F0EB0EC27F094ECC2
:1057C80028F0030E6A6F6A51ADEC06F0DE68DD68FA
:1057D8006A517EEC21F0DF686A2B0F0E6A65F3D7F9
:1057E8000F0C2CEC24F0696F0201A75104E10DD8CD
:1057F800F5CF6AF007D009D8F5CF68F000016951F4
:10580800685D6A6F00016A5112007D0EDF25F66E31
:10581800F76A7F0EF722080012000001756FF29EEA
:10582800E00E6D25716FFF0E6E21726FFF0E6F21F6
:10583800736FFF0E7021746F755184EC1FF071C087
:10584800DEFF72C0DEFF73C0DEFF74C0DEFFF28EC3
:105858001200B4EC0FF0DBEC1AF066EC2DF0DBEC88
:105868001AF00101A289A2A304D0A29390EC0BF034
:1058780009D0A2A107D0A291A9C1B0F0AAC1B1F0E4
:105888005EEC04F0E5521200666F66C060F000013D
:10589800616B030E636FE80E626F18EC2EF060C048
:1058A80094F261C095F2665102E178EC14F0E80ECA
:1058B80002019425966F030E9521976F1200F0EC64
:1058C8002EF060C040F061C041F0F0EC2EF0405086
:1058D800601903E141506119F8E066C060F067C0E3
:1058E80061F0E8EC2FF039EC2BF03EC066F03FC0D9
:1058F80067F01200636F0001626B63510F0B656FF5
:1059080063390F0B646F645136EC30F0000908E11D
:10591800655136EC30F0000903E16551645D02E23F
:10592800030E626F6251120000018F6FF29E32EC1B
:105938001FF08F5184EC1FF0DECF8BF0DECF8CF0A0
:10594800DECF8DF0DECF8EF0F28E8BC087F08CC06C
:1059580088F08DC089F08EC08AF01200E6523E0EA3
:1059680064EC2EF0536EFF0E53C0E3FFE3B0F9EF83
:1059780019F077EC19F0DBEC1AF00101A85165EC8D
:1059880030F00101A29390EC0BF0F9EF19F0000050
:105998000000000000000000000000000087420432
:1059A800910913544A49CEA401F63927A4933CA07F
:1059B800D606606E12D5DAA81579E37099686A512F
:1059C8006B11D8B41200320E606F020E616F6AC09C
:1059D80062F06BC063F006D894EC28F00201A58B46
:1059E80002991200656B100E646F100C120E64ECB5
:1059F8002EF001019D519E110AE0AE51AF1107E052
:105A080000016D6B6E6B6F6B706BB4EC1BF0020E6C
:105A18000001626F120E2EEF2FF0666F010E00016B
:105A2800606F66511FEC2FF0000901E0120066510B
:105A38007AEC2DF0DF50070B070AD8A4120064C0D7
:105A480060F0665157EF1DF060516111D8B4030C36
:105A5800626B60A108D062517AEC2DF0DF50070B21
:105A6800070A01E0030CD89061336033622B0F0EF4
:105A78006265EFD7000C23EC31F0000E40EC30F0FB
:105A88003FEC1BF0C4EC2DF025EC31F00A0E606FF2
:105A9800616B626B636BC4EC2DF0010E40EC30F06F
:105AA80023EF31F00101A85165EC30F0800E626FF0
:105AB800120E2EEC2FF006D8DBEC1AF00101A2939F
:105AC80090EF0BF097C165F0000E0001666F000CB7
:105AD800626F00016251ADEC06F060C0DEFF61C08C
